{
  "_format": "hh-sol-artifact-1",
  "contractName": "DeFiLending",
  "sourceName": "contracts/DeFiLending.sol",
  "abi": [
    {
      "inputs": [
        {
          "internalType": "contract IERC20",
          "name": "_token",
          "type": "address"
        }
      ],
      "stateMutability": "nonpayable",
      "type": "constructor"
    },
    {
      "inputs": [
        {
          "internalType": "address",
          "name": "",
          "type": "address"
        }
      ],
      "name": "balances",
      "outputs": [
        {
          "internalType": "uint256",
          "name": "",
          "type": "uint256"
        }
      ],
      "stateMutability": "view",
      "type": "function"
    },
    {
      "inputs": [
        {
          "internalType": "uint256",
          "name": "amount",
          "type": "uint256"
        }
      ],
      "name": "borrow",
      "outputs": [],
      "stateMutability": "nonpayable",
      "type": "function"
    },
    {
      "inputs": [
        {
          "internalType": "address",
          "name": "",
          "type": "address"
        }
      ],
      "name": "borrows",
      "outputs": [
        {
          "internalType": "uint256",
          "name": "",
          "type": "uint256"
        }
      ],
      "stateMutability": "view",
      "type": "function"
    },
    {
      "inputs": [],
      "name": "repay",
      "outputs": [],
      "stateMutability": "payable",
      "type": "function"
    },
    {
      "inputs": [],
      "name": "supply",
      "outputs": [],
      "stateMutability": "payable",
      "type": "function"
    },
    {
      "inputs": [],
      "name": "swap",
      "outputs": [],
      "stateMutability": "payable",
      "type": "function"
    },
    {
      "inputs": [],
      "name": "token",
      "outputs": [
        {
          "internalType": "contract IERC20",
          "name": "",
          "type": "address"
        }
      ],
      "stateMutability": "view",
      "type": "function"
    }
  ],
  "bytecode": "0x60806040523480156200001157600080fd5b50604051620012fc380380620012fc8339818101604052810190620000379190620000fc565b806000806101000a81548173ffffffffffffffffffffffffffffffffffffffff021916908373ffffffffffffffffffffffffffffffffffffffff160217905550506200012e565b600080fd5b600073ffffffffffffffffffffffffffffffffffffffff82169050919050565b6000620000b08262000083565b9050919050565b6000620000c482620000a3565b9050919050565b620000d681620000b7565b8114620000e257600080fd5b50565b600081519050620000f681620000cb565b92915050565b6000602082840312156200011557620001146200007e565b5b60006200012584828501620000e5565b91505092915050565b6111be806200013e6000396000f3fe6080604052600436106100705760003560e01c806354a5706f1161004e57806354a5706f146100c65780638119c06514610103578063c5ebeaec1461010d578063fc0c546a1461013657610070565b8063047fc9aa1461007557806327e235e31461007f578063402d8883146100bc575b600080fd5b61007d610161565b005b34801561008b57600080fd5b506100a660048036038101906100a19190610954565b6101fc565b6040516100b3919061099a565b60405180910390f35b6100c4610214565b005b3480156100d257600080fd5b506100ed60048036038101906100e89190610954565b610378565b6040516100fa919061099a565b60405180910390f35b61010b610390565b005b34801561011957600080fd5b50610134600480360381019061012f91906109e1565b6105a0565b005b34801561014257600080fd5b5061014b6108cd565b6040516101589190610a6d565b60405180910390f35b600034116101a4576040517f08c379a000000000000000000000000000000000000000000000000000000000815260040161019b90610b0b565b60405180910390fd5b34600160003373ffffffffffffffffffffffffffffffffffffffff1673ffffffffffffffffffffffffffffffffffffffff16815260200190815260200160002060008282546101f39190610b5a565b92505081905550565b60016020528060005260406000206000915090505481565b60003411610257576040517f08c379a000000000000000000000000000000000000000000000000000000000815260040161024e90610c00565b60405180910390fd5b34600260003373ffffffffffffffffffffffffffffffffffffffff1673ffffffffffffffffffffffffffffffffffffffff1681526020019081526020016000205410156102d9576040517f08c379a00000000000000000000000000000000000000000000000000000000081526004016102d090610c92565b60405180910390fd5b34600260003373ffffffffffffffffffffffffffffffffffffffff1673ffffffffffffffffffffffffffffffffffffffff16815260200190815260200160002060008282546103289190610cb2565b925050819055503373ffffffffffffffffffffffffffffffffffffffff166108fc349081150290604051600060405180830381858888f19350505050158015610375573d6000803e3d6000fd5b50565b60026020528060005260406000206000915090505481565b600034116103d3576040517f08c379a00000000000000000000000000000000000000000000000000000000081526004016103ca90610d58565b60405180910390fd5b60006064346103e29190610d78565b90508060008054906101000a900473ffffffffffffffffffffffffffffffffffffffff1673ffffffffffffffffffffffffffffffffffffffff166370a08231306040518263ffffffff1660e01b815260040161043e9190610dc9565b602060405180830381865afa15801561045b573d6000803e3d6000fd5b505050506040513d601f19601f8201168201806040525081019061047f9190610df9565b10156104c0576040517f08c379a00000000000000000000000000000000000000000000000000000000081526004016104b790610e72565b60405180910390fd5b60008054906101000a900473ffffffffffffffffffffffffffffffffffffffff1673ffffffffffffffffffffffffffffffffffffffff1663a9059cbb33836040518363ffffffff1660e01b815260040161051b929190610e92565b6020604051808303816000875af115801561053a573d6000803e3d6000fd5b505050506040513d601f19601f8201168201806040525081019061055e9190610ef3565b61059d576040517f08c379a000000000000000000000000000000000000000000000000000000000815260040161059490610f6c565b60405180910390fd5b50565b600081116105e3576040517f08c379a00000000000000000000000000000000000000000000000000000000081526004016105da90610ffe565b60405180910390fd5b80600160003373ffffffffffffffffffffffffffffffffffffffff1673ffffffffffffffffffffffffffffffffffffffff168152602001908152602001600020541015610665576040517f08c379a000000000000000000000000000000000000000000000000000000000815260040161065c9061106a565b60405180910390fd5b8060008054906101000a900473ffffffffffffffffffffffffffffffffffffffff1673ffffffffffffffffffffffffffffffffffffffff166370a08231306040518263ffffffff1660e01b81526004016106bf9190610dc9565b602060405180830381865afa1580156106dc573d6000803e3d6000fd5b505050506040513d601f19601f820116820180604052508101906107009190610df9565b1015610741576040517f08c379a0000000000000000000000000000000000000000000000000000000008152600401610738906110fc565b60405180910390fd5b80600160003373ffffffffffffffffffffffffffffffffffffffff1673ffffffffffffffffffffffffffffffffffffffff16815260200190815260200160002060008282546107909190610cb2565b9250508190555080600260003373ffffffffffffffffffffffffffffffffffffffff1673ffffffffffffffffffffffffffffffffffffffff16815260200190815260200160002060008282546107e69190610b5a565b9250508190555060008054906101000a900473ffffffffffffffffffffffffffffffffffffffff1673ffffffffffffffffffffffffffffffffffffffff1663a9059cbb33836040518363ffffffff1660e01b8152600401610848929190610e92565b6020604051808303816000875af1158015610867573d6000803e3d6000fd5b505050506040513d601f19601f8201168201806040525081019061088b9190610ef3565b6108ca576040517f08c379a00000000000000000000000000000000000000000000000000000000081526004016108c190611168565b60405180910390fd5b50565b60008054906101000a900473ffffffffffffffffffffffffffffffffffffffff1681565b600080fd5b600073ffffffffffffffffffffffffffffffffffffffff82169050919050565b6000610921826108f6565b9050919050565b61093181610916565b811461093c57600080fd5b50565b60008135905061094e81610928565b92915050565b60006020828403121561096a576109696108f1565b5b60006109788482850161093f565b91505092915050565b6000819050919050565b61099481610981565b82525050565b60006020820190506109af600083018461098b565b92915050565b6109be81610981565b81146109c957600080fd5b50565b6000813590506109db816109b5565b92915050565b6000602082840312156109f7576109f66108f1565b5b6000610a05848285016109cc565b91505092915050565b6000819050919050565b6000610a33610a2e610a29846108f6565b610a0e565b6108f6565b9050919050565b6000610a4582610a18565b9050919050565b6000610a5782610a3a565b9050919050565b610a6781610a4c565b82525050565b6000602082019050610a826000830184610a5e565b92915050565b600082825260208201905092915050565b7f537570706c7920616d6f756e74206d757374206265206772656174657220746860008201527f616e203000000000000000000000000000000000000000000000000000000000602082015250565b6000610af5602483610a88565b9150610b0082610a99565b604082019050919050565b60006020820190508181036000830152610b2481610ae8565b9050919050565b7f4e487b7100000000000000000000000000000000000000000000000000000000600052601160045260246000fd5b6000610b6582610981565b9150610b7083610981565b9250828201905080821115610b8857610b87610b2b565b5b92915050565b7f526570617920616d6f756e74206d75737420626520677265617465722074686160008201527f6e20300000000000000000000000000000000000000000000000000000000000602082015250565b6000610bea602383610a88565b9150610bf582610b8e565b604082019050919050565b60006020820190508181036000830152610c1981610bdd565b9050919050565b7f526570617920616d6f756e74206578636565647320626f72726f77656420616d60008201527f6f756e7400000000000000000000000000000000000000000000000000000000602082015250565b6000610c7c602483610a88565b9150610c8782610c20565b604082019050919050565b60006020820190508181036000830152610cab81610c6f565b9050919050565b6000610cbd82610981565b9150610cc883610981565b9250828203905081811115610ce057610cdf610b2b565b5b92915050565b7f5377617020616d6f756e74206d7573742062652067726561746572207468616e60008201527f2030000000000000000000000000000000000000000000000000000000000000602082015250565b6000610d42602283610a88565b9150610d4d82610ce6565b604082019050919050565b60006020820190508181036000830152610d7181610d35565b9050919050565b6000610d8382610981565b9150610d8e83610981565b9250828202610d9c81610981565b91508282048414831517610db357610db2610b2b565b5b5092915050565b610dc381610916565b82525050565b6000602082019050610dde6000830184610dba565b92915050565b600081519050610df3816109b5565b92915050565b600060208284031215610e0f57610e0e6108f1565b5b6000610e1d84828501610de4565b91505092915050565b7f496e73756666696369656e74204d54454120696e20636f6e7472616374000000600082015250565b6000610e5c601d83610a88565b9150610e6782610e26565b602082019050919050565b60006020820190508181036000830152610e8b81610e4f565b9050919050565b6000604082019050610ea76000830185610dba565b610eb4602083018461098b565b9392505050565b60008115159050919050565b610ed081610ebb565b8114610edb57600080fd5b50565b600081519050610eed81610ec7565b92915050565b600060208284031215610f0957610f086108f1565b5b6000610f1784828501610ede565b91505092915050565b7f4d544541207472616e73666572206661696c6564000000000000000000000000600082015250565b6000610f56601483610a88565b9150610f6182610f20565b602082019050919050565b60006020820190508181036000830152610f8581610f49565b9050919050565b7f426f72726f7720616d6f756e74206d757374206265206772656174657220746860008201527f616e203000000000000000000000000000000000000000000000000000000000602082015250565b6000610fe8602483610a88565b9150610ff382610f8c565b604082019050919050565b6000602082019050818103600083015261101781610fdb565b9050919050565b7f496e73756666696369656e742062616c616e636520746f20626f72726f770000600082015250565b6000611054601e83610a88565b915061105f8261101e565b602082019050919050565b6000602082019050818103600083015261108381611047565b9050919050565b7f496e73756666696369656e7420746f6b656e2062616c616e636520696e20636f60008201527f6e74726163740000000000000000000000000000000000000000000000000000602082015250565b60006110e6602683610a88565b91506110f18261108a565b604082019050919050565b60006020820190508181036000830152611115816110d9565b9050919050565b7f546f6b656e207472616e73666572206661696c65640000000000000000000000600082015250565b6000611152601583610a88565b915061115d8261111c565b602082019050919050565b6000602082019050818103600083015261118181611145565b905091905056fea2646970667358221220beb5f4008ab5e4a6a89e02d63d0eedaaeb256b9c908529a37cec597613579b6364736f6c63430008140033",
  "linkReferences": {},
  "deployedLinkReferences": {}
}